:020000040000FA
:1000000003138316FF3086008700003088008312B8
:100010000313871F0C281928061F0F281428871A76
:100020002620871E2C206820871A3220871E402019
:100030006820061F1C282128871A5020871E56205A
:100040006820871A5C20871E622068200608A000AE
:1000500007082007880008000608A00007082002FB
:10006000880008000608A0000030A10087120713CE
:1000700087130708A107A00B3A2821088800080069
:100080000030C0000608A000871207138713070876
:100090002002071CC00A071C4828400888000800E6
:1000A0000608A00007082005880008000608A00030
:1000B00007082004880008000608A000070820069A
:1000C0008800080006082030A009200888000800E1
:00000001FF
